{
  "address": "0xc2Ba4c7eB13f5e3fb014e8994fCa8970FA245898",
  "abi": [
    {
      "inputs": [],
      "stateMutability": "nonpayable",
      "type": "constructor"
    },
    {
      "anonymous": false,
      "inputs": [
        {
          "indexed": true,
          "internalType": "address",
          "name": "owner",
          "type": "address"
        },
        {
          "indexed": false,
          "internalType": "enum MultiSigWallet.Role",
          "name": "role",
          "type": "uint8"
        }
      ],
      "name": "AddOwner",
      "type": "event"
    },
    {
      "anonymous": false,
      "inputs": [
        {
          "indexed": true,
          "internalType": "address",
          "name": "sender",
          "type": "address"
        },
        {
          "indexed": false,
          "internalType": "uint256",
          "name": "amount",
          "type": "uint256"
        },
        {
          "indexed": false,
          "internalType": "uint256",
          "name": "balance",
          "type": "uint256"
        }
      ],
      "name": "Deposit",
      "type": "event"
    },
    {
      "anonymous": false,
      "inputs": [
        {
          "indexed": true,
          "internalType": "address",
          "name": "owner",
          "type": "address"
        },
        {
          "indexed": false,
          "internalType": "address payable",
          "name": "to",
          "type": "address"
        },
        {
          "indexed": false,
          "internalType": "uint256",
          "name": "value",
          "type": "uint256"
        },
        {
          "indexed": false,
          "internalType": "bytes",
          "name": "data",
          "type": "bytes"
        },
        {
          "indexed": false,
          "internalType": "uint256",
          "name": "nonce",
          "type": "uint256"
        },
        {
          "indexed": false,
          "internalType": "bytes32",
          "name": "_hash",
          "type": "bytes32"
        },
        {
          "indexed": false,
          "internalType": "bytes",
          "name": "result",
          "type": "bytes"
        }
      ],
      "name": "ExecuteTransaction",
      "type": "event"
    },
    {
      "anonymous": false,
      "inputs": [
        {
          "indexed": true,
          "internalType": "address",
          "name": "owner",
          "type": "address"
        },
        {
          "indexed": false,
          "internalType": "enum MultiSigWallet.Role",
          "name": "role",
          "type": "uint8"
        }
      ],
      "name": "RemoveOwner",
      "type": "event"
    },
    {
      "anonymous": false,
      "inputs": [
        {
          "indexed": true,
          "internalType": "bytes32",
          "name": "msgHash",
          "type": "bytes32"
        }
      ],
      "name": "SignMsg",
      "type": "event"
    },
    {
      "anonymous": false,
      "inputs": [
        {
          "indexed": true,
          "internalType": "address",
          "name": "to",
          "type": "address"
        },
        {
          "indexed": false,
          "internalType": "uint256",
          "name": "amount",
          "type": "uint256"
        },
        {
          "indexed": false,
          "internalType": "uint256",
          "name": "balance",
          "type": "uint256"
        }
      ],
      "name": "Withdraw",
      "type": "event"
    },
    {
      "inputs": [
        {
          "internalType": "address",
          "name": "addr",
          "type": "address"
        },
        {
          "internalType": "enum MultiSigWallet.Role",
          "name": "role",
          "type": "uint8"
        },
        {
          "internalType": "uint256",
          "name": "_signaturesRequired",
          "type": "uint256"
        }
      ],
      "name": "addOwner",
      "outputs": [],
      "stateMutability": "nonpayable",
      "type": "function"
    },
    {
      "inputs": [
        {
          "internalType": "uint256",
          "name": "_nonce",
          "type": "uint256"
        },
        {
          "internalType": "address payable",
          "name": "to",
          "type": "address"
        },
        {
          "internalType": "uint256",
          "name": "value",
          "type": "uint256"
        },
        {
          "internalType": "bytes",
          "name": "data",
          "type": "bytes"
        },
        {
          "internalType": "bytes[]",
          "name": "signatures",
          "type": "bytes[]"
        }
      ],
      "name": "executeTransaction",
      "outputs": [
        {
          "internalType": "bytes",
          "name": "",
          "type": "bytes"
        }
      ],
      "stateMutability": "nonpayable",
      "type": "function"
    },
    {
      "inputs": [],
      "name": "getAdminCount",
      "outputs": [
        {
          "internalType": "uint256",
          "name": "",
          "type": "uint256"
        }
      ],
      "stateMutability": "view",
      "type": "function"
    },
    {
      "inputs": [],
      "name": "getChainId",
      "outputs": [
        {
          "internalType": "uint256",
          "name": "",
          "type": "uint256"
        }
      ],
      "stateMutability": "view",
      "type": "function"
    },
    {
      "inputs": [],
      "name": "getNonce",
      "outputs": [
        {
          "internalType": "uint256",
          "name": "",
          "type": "uint256"
        }
      ],
      "stateMutability": "view",
      "type": "function"
    },
    {
      "inputs": [
        {
          "internalType": "address",
          "name": "addr",
          "type": "address"
        }
      ],
      "name": "getRole",
      "outputs": [
        {
          "internalType": "enum MultiSigWallet.Role",
          "name": "",
          "type": "uint8"
        }
      ],
      "stateMutability": "view",
      "type": "function"
    },
    {
      "inputs": [],
      "name": "getSignaturesRequired",
      "outputs": [
        {
          "internalType": "uint256",
          "name": "",
          "type": "uint256"
        }
      ],
      "stateMutability": "view",
      "type": "function"
    },
    {
      "inputs": [],
      "name": "getTotalSigner",
      "outputs": [
        {
          "internalType": "uint256",
          "name": "",
          "type": "uint256"
        }
      ],
      "stateMutability": "view",
      "type": "function"
    },
    {
      "inputs": [
        {
          "internalType": "uint256",
          "name": "_nonce",
          "type": "uint256"
        },
        {
          "internalType": "address",
          "name": "to",
          "type": "address"
        },
        {
          "internalType": "uint256",
          "name": "value",
          "type": "uint256"
        },
        {
          "internalType": "bytes",
          "name": "data",
          "type": "bytes"
        }
      ],
      "name": "getTransactionStructHash",
      "outputs": [
        {
          "internalType": "bytes32",
          "name": "",
          "type": "bytes32"
        }
      ],
      "stateMutability": "view",
      "type": "function"
    },
    {
      "inputs": [],
      "name": "getTransactionTypeHash",
      "outputs": [
        {
          "internalType": "bytes32",
          "name": "",
          "type": "bytes32"
        }
      ],
      "stateMutability": "pure",
      "type": "function"
    },
    {
      "inputs": [
        {
          "internalType": "uint256",
          "name": "_chainId",
          "type": "uint256"
        },
        {
          "internalType": "address[]",
          "name": "owners",
          "type": "address[]"
        },
        {
          "internalType": "enum MultiSigWallet.Role[]",
          "name": "roles",
          "type": "uint8[]"
        },
        {
          "internalType": "uint256",
          "name": "_signaturesRequired",
          "type": "uint256"
        }
      ],
      "name": "init",
      "outputs": [],
      "stateMutability": "nonpayable",
      "type": "function"
    },
    {
      "inputs": [
        {
          "internalType": "address",
          "name": "addr",
          "type": "address"
        }
      ],
      "name": "isOwner",
      "outputs": [
        {
          "internalType": "bool",
          "name": "",
          "type": "bool"
        }
      ],
      "stateMutability": "view",
      "type": "function"
    },
    {
      "inputs": [
        {
          "internalType": "bytes32",
          "name": "_hash",
          "type": "bytes32"
        },
        {
          "internalType": "bytes",
          "name": "_signature",
          "type": "bytes"
        }
      ],
      "name": "recover",
      "outputs": [
        {
          "internalType": "address",
          "name": "",
          "type": "address"
        }
      ],
      "stateMutability": "pure",
      "type": "function"
    },
    {
      "inputs": [
        {
          "internalType": "address",
          "name": "addr",
          "type": "address"
        },
        {
          "internalType": "uint256",
          "name": "_signaturesRequired",
          "type": "uint256"
        }
      ],
      "name": "removeOwner",
      "outputs": [],
      "stateMutability": "nonpayable",
      "type": "function"
    },
    {
      "inputs": [
        {
          "internalType": "address",
          "name": "to",
          "type": "address"
        },
        {
          "internalType": "uint256",
          "name": "amount",
          "type": "uint256"
        }
      ],
      "name": "withdraw",
      "outputs": [],
      "stateMutability": "nonpayable",
      "type": "function"
    },
    {
      "stateMutability": "payable",
      "type": "receive"
    }
  ],
  "transactionHash": "0x50d32d3eec13f49bc281d6deb97d9d20a06b1f74f4064488b8ac92df877ea94a",
  "args": [],
  "numDeployments": 1,
  "solcInputHash": "4f868d8a83da5211ee25dd7757242ec1",
  "bytecode": "0x61014060405234801561001157600080fd5b50604080518082018252600e81526d135d5b1d1a54da59d5d85b1b195d60921b6020808301918252835180850190945260018452603160f81b908401528151902060e08190527fc89efdaa54c0f20c7adf612882df0950f5a951637e0307cdcb4c672f298b8bc66101008190524660a0529192917f8b73c3c69bb8fe3d512ecc4cf759cc79239f7b179b0ffacaa9a75d522b39400f6100f58184846040805160208101859052908101839052606081018290524660808201523060a082015260009060c0016040516020818303038152906040528051906020012090509392505050565b6080523060c081905261012091909152600080546001600160a01b0319908116909217905560018054909116331790555061012f92505050565b60805160a05160c05160e05161010051610120516119f661017e60003960006111e00152600061122f0152600061120a015260006111630152600061118d015260006111b701526119f66000f3fe6080604052600436106100ec5760003560e01c8063a8641d851161008a578063d087d28811610059578063d087d288146102fe578063d0f6a84114610313578063d6994e5414610333578063f3fef3a31461035357600080fd5b8063a8641d8514610281578063bfd2b3a314610296578063caa3d5c0146102b6578063cd203bf7146102cb57600080fd5b80633408e470116100c65780633408e470146101da57806344276733146101f95780634c1d76f51461023f5780638b7bf3eb1461026c57600080fd5b80630ae49f2c1461013257806319045a25146101545780632f54bf6e1461019157600080fd5b3661012d576040805134815247602082015233917f90890809c654f11d6e72a28fa60149770a0d11ec6c92319d6ceb2bb0a4ea1a15910160405180910390a2005b600080fd5b34801561013e57600080fd5b5061015261014d366004611447565b610373565b005b34801561016057600080fd5b5061017461016f36600461158c565b6106c6565b6040516001600160a01b0390911681526020015b60405180910390f35b34801561019d57600080fd5b506101ca6101ac3660046115d3565b6001600160a01b031660009081526007602052604090205460ff1690565b6040519015158152602001610188565b3480156101e657600080fd5b506006545b604051908152602001610188565b34801561020557600080fd5b506102326102143660046115d3565b6001600160a01b031660009081526008602052604090205460ff1690565b604051610188919061160d565b34801561024b57600080fd5b5061025f61025a366004611635565b6106db565b6040516101889190611783565b34801561027857600080fd5b506003546101eb565b34801561028d57600080fd5b506002546101eb565b3480156102a257600080fd5b506101526102b1366004611796565b610a25565b3480156102c257600080fd5b506004546101eb565b3480156102d757600080fd5b507ffe9232f930a1888451a774c0b727018ef25ecd765eb13538f36e68d536913ef86101eb565b34801561030a57600080fd5b506005546101eb565b34801561031f57600080fd5b506101eb61032e3660046117c2565b610c42565b34801561033f57600080fd5b5061015261034e366004611825565b610cc5565b34801561035f57600080fd5b5061015261036e366004611796565b610e08565b600a5460ff16156103c15760405162461bcd60e51b8152602060048201526013602482015272105b1c9958591e481a5b9a5d1a585b1a5e9959606a1b60448201526064015b60405180910390fd5b600a8054600160ff199091168117909155546001600160a01b031633146104185760405162461bcd60e51b815260206004820152600b60248201526a2737ba1021b932b0ba37b960a91b60448201526064016103b8565b81518351146104785760405162461bcd60e51b815260206004820152602660248201527f4f776e657273206c656e67746820646f6e2774206d6174636820726f6c6573206044820152650d8cadccee8d60d31b60648201526084016103b8565b825181111580156104895750600081115b6104a55760405162461bcd60e51b81526004016103b890611863565b8251600255600481905560005b60025481101561066b5760008482815181106104d0576104d06118ae565b6020908102919091018101516001600160a01b0381166000908152600790925260409091205490915060ff161561053b5760405162461bcd60e51b815260206004820152600f60248201526e323ab83634b1b0ba329037bbb732b960891b60448201526064016103b8565b6001600160a01b0381166000908152600760205260409020805460ff191660011790558351849083908110610572576105726118ae565b6020908102919091018101516001600160a01b038316600090815260089092526040909120805460ff191660018360028111156105b1576105b16115f7565b021790555060018483815181106105ca576105ca6118ae565b602002602001015160028111156105e3576105e36115f7565b036105fe57600380549060006105f8836118da565b91905055505b806001600160a01b03167f9953fc2a6486f3b9e0ffa2b042145a90acc4f36c3a7ff6e7a974be4320d4297f85848151811061063b5761063b6118ae565b6020026020010151604051610650919061160d565b60405180910390a25080610663816118da565b9150506104b2565b506000600354116106be5760405162461bcd60e51b815260206004820181905260248201527f5468657265206d757374206265206174206c65617374206f6e652061646d696e60448201526064016103b8565b505050600655565b60006106d28383610f52565b90505b92915050565b3360009081526007602052604090205460609060ff168015610720575060013360009081526008602052604090205460ff16600281111561071e5761071e6115f7565b145b61077f5760405162461bcd60e51b815260206004820152602a60248201527f657865637574655472616e73616374696f6e3a206f6e6c792061646d696e2063604482015269616e206578656375746560b01b60648201526084016103b8565b600061078d87878787610c42565b60058054919250600061079f836118da565b909155506000905080805b85518110156108a35760006107d8858884815181106107cb576107cb6118ae565b60200260200101516106c6565b9050836001600160a01b0316816001600160a01b0316116108595760405162461bcd60e51b815260206004820152603560248201527f657865637574655472616e73616374696f6e3a206475706c6963617465206f7260448201527420756e6f726465726564207369676e61747572657360581b60648201526084016103b8565b6001600160a01b03811660009081526007602052604090205460ff1661087f5750610891565b82610889816118da565b935050809350505b8061089b816118da565b9150506107aa565b5060045481101561090e5760405162461bcd60e51b815260206004820152602f60248201527f657865637574655472616e73616374696f6e3a206e6f7420656e6f756768207660448201526e616c6964207369676e61747572657360881b60648201526084016103b8565b600080896001600160a01b0316898960405161092a91906118f3565b60006040518083038185875af1925050503d8060008114610967576040519150601f19603f3d011682016040523d82523d6000602084013e61096c565b606091505b5091509150816109be5760405162461bcd60e51b815260206004820152601d60248201527f657865637574655472616e73616374696f6e3a207478206661696c656400000060448201526064016103b8565b336001600160a01b03167f9053e9ec105157fac8c9308d63e6b22be5f50fe915a3e567419b624311a02d748b8b8b60016005546109fb919061190f565b8a87604051610a0f96959493929190611922565b60405180910390a29a9950505050505050505050565b333014610a445760405162461bcd60e51b81526004016103b890611974565b6001600160a01b03821660009081526007602052604090205460ff16610a985760405162461bcd60e51b81526020600482015260096024820152682737ba1027bbb732b960b91b60448201526064016103b8565b600160025411610ae25760405162461bcd60e51b815260206004820152601560248201527425b2b2b81030ba103632b0b9ba10189037bbb732b960591b60448201526064016103b8565b600160026000828254610af5919061190f565b90915550600190506001600160a01b03831660009081526008602052604090205460ff166002811115610b2a57610b2a6115f7565b03610b965760038054906000610b3f83611996565b9190505550600060035411610b965760405162461bcd60e51b815260206004820181905260248201527f5468657265206d757374206265206174206c65617374206f6e652061646d696e60448201526064016103b8565b6002548111158015610ba85750600081115b610bc45760405162461bcd60e51b81526004016103b890611863565b60048190556001600160a01b0382166000818152600760209081526040808320805460ff1990811690915560089092529182902080549182169055905160ff90911691907ffc05279d980904ad21917da850654cf4b3570c69c98df418c20a51cd5da73a5890610c3590849061160d565b60405180910390a2505050565b8051602080830191909120604080517ffe9232f930a1888451a774c0b727018ef25ecd765eb13538f36e68d536913ef8818501528082018890526001600160a01b03871660608201526080810186905260a0808201939093528151808203909301835260c00190528051910120600090610cbb81610f76565b9695505050505050565b333014610ce45760405162461bcd60e51b81526004016103b890611974565b6001600160a01b03831660009081526007602052604090205460ff16610d1d57600160026000828254610d1791906119ad565b90915550505b6002548111158015610d2f5750600081115b610d4b5760405162461bcd60e51b81526004016103b890611863565b60048190556001600160a01b03831660009081526007602090815260408083208054600160ff199182168117909255600890935292208054859391921690836002811115610d9b57610d9b6115f7565b02179055506001826002811115610db457610db46115f7565b03610dcf5760038054906000610dc9836118da565b91905055505b826001600160a01b03167f9953fc2a6486f3b9e0ffa2b042145a90acc4f36c3a7ff6e7a974be4320d4297f83604051610c35919061160d565b333014610e275760405162461bcd60e51b81526004016103b890611974565b4780821115610e6f5760405162461bcd60e51b8152602060048201526014602482015273496e73756666696369656e742062616c616e636560601b60448201526064016103b8565b6000836001600160a01b03168260405160006040518083038185875af1925050503d8060008114610ebc576040519150601f19603f3d011682016040523d82523d6000602084013e610ec1565b606091505b5050905080610f095760405162461bcd60e51b81526020600482015260146024820152732330b4b632b2103a379039b2b7321022ba3432b960611b60448201526064016103b8565b604080518481524760208201526001600160a01b038616917ff279e6a1f5e320cca91135676d9cb6e44ca8a08c0b88342bcdb1144f6511b568910160405180910390a250505050565b6000806000610f618585610fc4565b91509150610f6e81611009565b509392505050565b60006106d5610f83611156565b8360405161190160f01b6020820152602281018390526042810182905260009060620160405160208183030381529060405280519060200120905092915050565b6000808251604103610ffa5760208301516040840151606085015160001a610fee8782858561127d565b94509450505050611002565b506000905060025b9250929050565b600081600481111561101d5761101d6115f7565b036110255750565b6001816004811115611039576110396115f7565b036110865760405162461bcd60e51b815260206004820152601860248201527f45434453413a20696e76616c6964207369676e6174757265000000000000000060448201526064016103b8565b600281600481111561109a5761109a6115f7565b036110e75760405162461bcd60e51b815260206004820152601f60248201527f45434453413a20696e76616c6964207369676e6174757265206c656e6774680060448201526064016103b8565b60038160048111156110fb576110fb6115f7565b036111535760405162461bcd60e51b815260206004820152602260248201527f45434453413a20696e76616c6964207369676e6174757265202773272076616c604482015261756560f01b60648201526084016103b8565b50565b6000306001600160a01b037f0000000000000000000000000000000000000000000000000000000000000000161480156111af57507f000000000000000000000000000000000000000000000000000000000000000046145b156111d957507f000000000000000000000000000000000000000000000000000000000000000090565b50604080517f00000000000000000000000000000000000000000000000000000000000000006020808301919091527f0000000000000000000000000000000000000000000000000000000000000000828401527f000000000000000000000000000000000000000000000000000000000000000060608301524660808301523060a0808401919091528351808403909101815260c0909201909252805191012090565b6000807f7fffffffffffffffffffffffffffffff5d576e7357a4501ddfe92f46681b20a08311156112b45750600090506003611338565b6040805160008082526020820180845289905260ff881692820192909252606081018690526080810185905260019060a0016020604051602081039080840390855afa158015611308573d6000803e3d6000fd5b5050604051601f1901519150506001600160a01b03811661133157600060019250925050611338565b9150600090505b94509492505050565b634e487b7160e01b600052604160045260246000fd5b604051601f8201601f1916810167ffffffffffffffff8111828210171561138057611380611341565b604052919050565b600067ffffffffffffffff8211156113a2576113a2611341565b5060051b60200190565b6001600160a01b038116811461115357600080fd5b8035600381106113d057600080fd5b919050565b600082601f8301126113e657600080fd5b813560206113fb6113f683611388565b611357565b82815260059290921b8401810191818101908684111561141a57600080fd5b8286015b8481101561143c5761142f816113c1565b835291830191830161141e565b509695505050505050565b6000806000806080858703121561145d57600080fd5b8435935060208086013567ffffffffffffffff8082111561147d57600080fd5b818801915088601f83011261149157600080fd5b813561149f6113f682611388565b81815260059190911b8301840190848101908b8311156114be57600080fd5b938501935b828510156114e55784356114d6816113ac565b825293850193908501906114c3565b9750505060408801359250808311156114fd57600080fd5b505061150b878288016113d5565b949793965093946060013593505050565b600082601f83011261152d57600080fd5b813567ffffffffffffffff81111561154757611547611341565b61155a601f8201601f1916602001611357565b81815284602083860101111561156f57600080fd5b816020850160208301376000918101602001919091529392505050565b6000806040838503121561159f57600080fd5b82359150602083013567ffffffffffffffff8111156115bd57600080fd5b6115c98582860161151c565b9150509250929050565b6000602082840312156115e557600080fd5b81356115f0816113ac565b9392505050565b634e487b7160e01b600052602160045260246000fd5b602081016003831061162f57634e487b7160e01b600052602160045260246000fd5b91905290565b600080600080600060a0868803121561164d57600080fd5b85359450602080870135611660816113ac565b945060408701359350606087013567ffffffffffffffff8082111561168457600080fd5b6116908a838b0161151c565b945060808901359150808211156116a657600080fd5b818901915089601f8301126116ba57600080fd5b81356116c86113f682611388565b81815260059190911b8301840190848101908c8311156116e757600080fd5b8585015b8381101561171f578035858111156117035760008081fd5b6117118f89838a010161151c565b8452509186019186016116eb565b508096505050505050509295509295909350565b60005b8381101561174e578181015183820152602001611736565b50506000910152565b6000815180845261176f816020860160208601611733565b601f01601f19169290920160200192915050565b6020815260006106d26020830184611757565b600080604083850312156117a957600080fd5b82356117b4816113ac565b946020939093013593505050565b600080600080608085870312156117d857600080fd5b8435935060208501356117ea816113ac565b925060408501359150606085013567ffffffffffffffff81111561180d57600080fd5b6118198782880161151c565b91505092959194509250565b60008060006060848603121561183a57600080fd5b8335611845816113ac565b9250611853602085016113c1565b9150604084013590509250925092565b6020808252602b908201527f7369676e6174757265735265717569726564206d75737420696e2028302c207460408201526a6f74616c5369676e65725d60a81b606082015260800190565b634e487b7160e01b600052603260045260246000fd5b634e487b7160e01b600052601160045260246000fd5b6000600182016118ec576118ec6118c4565b5060010190565b60008251611905818460208701611733565b9190910192915050565b818103818111156106d5576106d56118c4565b60018060a01b038716815285602082015260c06040820152600061194960c0830187611757565b85606084015284608084015282810360a08401526119678185611757565b9998505050505050505050565b6020808252600890820152672737ba1039b2b63360c11b604082015260600190565b6000816119a5576119a56118c4565b506000190190565b808201808211156106d5576106d56118c456fea2646970667358221220a8fe08c080ad6d61c7235a1282286a6a74de8fd39691bbc688d4ca0cf424ffe264736f6c63430008110033",
  "devdoc": {
    "kind": "dev",
    "methods": {},
    "version": 1
  },
  "userdoc": {
    "kind": "user",
    "methods": {
      "withdraw(address,uint256)": {
        "notice": "Function that allows the owner to withdraw all the Ether in the contract The function can only be called by the owner of the contract as defined by the isOwner modifier"
      }
    },
    "version": 1
  },
  "storageLayout": {
    "storage": [
      {
        "astId": 1619,
        "contract": "contracts/MultiSigWallet.sol:MultiSigWallet",
        "label": "singleton",
        "offset": 0,
        "slot": "0",
        "type": "t_address"
      },
      {
        "astId": 1621,
        "contract": "contracts/MultiSigWallet.sol:MultiSigWallet",
        "label": "factory",
        "offset": 0,
        "slot": "1",
        "type": "t_address"
      },
      {
        "astId": 1623,
        "contract": "contracts/MultiSigWallet.sol:MultiSigWallet",
        "label": "totalSigner",
        "offset": 0,
        "slot": "2",
        "type": "t_uint256"
      },
      {
        "astId": 1625,
        "contract": "contracts/MultiSigWallet.sol:MultiSigWallet",
        "label": "adminCount",
        "offset": 0,
        "slot": "3",
        "type": "t_uint256"
      },
      {
        "astId": 1627,
        "contract": "contracts/MultiSigWallet.sol:MultiSigWallet",
        "label": "signaturesRequired",
        "offset": 0,
        "slot": "4",
        "type": "t_uint256"
      },
      {
        "astId": 1629,
        "contract": "contracts/MultiSigWallet.sol:MultiSigWallet",
        "label": "nonce",
        "offset": 0,
        "slot": "5",
        "type": "t_uint256"
      },
      {
        "astId": 1631,
        "contract": "contracts/MultiSigWallet.sol:MultiSigWallet",
        "label": "chainId",
        "offset": 0,
        "slot": "6",
        "type": "t_uint256"
      },
      {
        "astId": 1635,
        "contract": "contracts/MultiSigWallet.sol:MultiSigWallet",
        "label": "ownerMap",
        "offset": 0,
        "slot": "7",
        "type": "t_mapping(t_address,t_bool)"
      },
      {
        "astId": 1640,
        "contract": "contracts/MultiSigWallet.sol:MultiSigWallet",
        "label": "roleMap",
        "offset": 0,
        "slot": "8",
        "type": "t_mapping(t_address,t_enum(Role)1567)"
      },
      {
        "astId": 1644,
        "contract": "contracts/MultiSigWallet.sol:MultiSigWallet",
        "label": "signedMsgMap",
        "offset": 0,
        "slot": "9",
        "type": "t_mapping(t_bytes32,t_bool)"
      },
      {
        "astId": 1646,
        "contract": "contracts/MultiSigWallet.sol:MultiSigWallet",
        "label": "initialized",
        "offset": 0,
        "slot": "10",
        "type": "t_bool"
      }
    ],
    "types": {
      "t_address": {
        "encoding": "inplace",
        "label": "address",
        "numberOfBytes": "20"
      },
      "t_bool": {
        "encoding": "inplace",
        "label": "bool",
        "numberOfBytes": "1"
      },
      "t_bytes32": {
        "encoding": "inplace",
        "label": "bytes32",
        "numberOfBytes": "32"
      },
      "t_enum(Role)1567": {
        "encoding": "inplace",
        "label": "enum MultiSigWallet.Role",
        "numberOfBytes": "1"
      },
      "t_mapping(t_address,t_bool)": {
        "encoding": "mapping",
        "key": "t_address",
        "label": "mapping(address => bool)",
        "numberOfBytes": "32",
        "value": "t_bool"
      },
      "t_mapping(t_address,t_enum(Role)1567)": {
        "encoding": "mapping",
        "key": "t_address",
        "label": "mapping(address => enum MultiSigWallet.Role)",
        "numberOfBytes": "32",
        "value": "t_enum(Role)1567"
      },
      "t_mapping(t_bytes32,t_bool)": {
        "encoding": "mapping",
        "key": "t_bytes32",
        "label": "mapping(bytes32 => bool)",
        "numberOfBytes": "32",
        "value": "t_bool"
      },
      "t_uint256": {
        "encoding": "inplace",
        "label": "uint256",
        "numberOfBytes": "32"
      }
    }
  }
}